:1000000043EF06F0F76A140FF66E000EF7220900B0
:10001000F55012002C0F0106506F7369626C652059
:10002000636F6C6973696F6E200A64656C616E74CE
:10003000657261210000506F7369626C6520636FA7
:100040006C6973696F6E200A7472617365726121E5
:10005000000050656C6967726F20706F72200A72C1
:100060006574656E63696F6E210053656E736F72A0
:100070002044656C616E7465726F0A446973743AEA
:100080002025302E3266206D000053656E736F722E
:10009000205472617365726F0A446973743A202543
:1000A000302E3266206D0000B50ECD6EB1EF00F03F
:1000B000B50EB16EB2EF00F0EA6A240EE96EEF50B1
:1000C00007E0A50E006E002EFED70000EF2EF9D738
:1000D000000C2538F00B006E0F0E81140010816E9D
:1000E0000000818600008196000C8194030E246E2E
:1000F000E3DF22A0819422B0818400000000819679
:100100002338246E0F0E241624C025F0E2DF23507E
:100110000F0B246E256EDDDF000C030E936E8194B1
:100120008196320E246EC8DF020E256ED2DF050ED8
:10013000246EC2DF106A105003080CE3036A1050EB
:1001400061DF116E226A236ED0DF050E246EB4DFEC
:10015000102AF1D7C1EF00F0946A8B6A936A8A6A19
:10016000A3D7A6D7C090C092C094C08EC280000E04
:10017000016EC250C30B0110C26E00D000D000004F
:10018000CCD7949E8B9E5EEF06F0B60E006E036A8F
:10019000026A016A1A501B101C101D1002E1006A4D
:1001A0000DD0D89001BE09D01A361B361C361D362C
:1001B000033602360136002EF4D7019E000C1A5089
:1001C000D8B4A5D0266E1E50D8B4A1D0265E05E3C3
:1001D0007F0E2626D8B09BD006D0810E265ED8A0F2
:1001E00096D0D8B494D026C000F0016A026A036A9F
:1001F000256A1BC024F0248E1CC023F01DC022F0F1
:10020000190E266E2150225E0DE2010E235E0AE2D7
:10021000245E08E2255E06E2252A242A232A2150AC
:10022000222628D02050235E12E2010E245E0FE227
:10023000255E0DE2252A242A20502326215022263D
:1002400019E3232A17E1242A15E1252A13D01F5088
:100250008009245E0EE2010E255E0BE2252A1F5066
:100260008009242620502326E9E3242AE7E1252AD1
:10027000E5D70380262E01D00BD0D8902236233626
:1002800024362536D8900336023601362736BAD7BB
:1002900027A006D0D890013202320332273202D092
:1002A000000635E027BE1ED0D890223623362436ED
:1002B00025362150225E07E2010E235E04E2245E11
:1002C00002E2255E1AE32050235E05E2010E245E61
:1002D00002E2255E12E31F508009245E03E2010E54
:1002E000255E0BE3032A09E1022A07E1012A05E161
:1002F000002A0DE00132023203321BC026F01F50EB
:10030000261A26AE02D0018E06D0019E04D0006AC5
:10031000016A026A036A000C1E50D8B471D0006EE4
:100320002250D8B46DD0002604E3810E002668E286
:1003300004D07F0E005E64E363E01FC026F023500C
:10034000261A1F8E238E21502502F4CF28F020502C
:100350002402F4CF03F0F3CF27F02502F350282630
:10036000F4502722000E032221502402F3502826A5
:10037000F4502722000E026A032202221F50250297
:10038000F3502726F4500322000E02221F502402AD
:10039000F3500326F4500222000E016A012221507C
:1003A0002302F3502726F4500322000E02220122DA
:1003B00020502302F3500326F4500222000E0122A3
:1003C0001F502302F3500226F4500122002A01BEDE
:1003D00005D027360336023601360006000E27AE5A
:1003E0000AD0032A02220122015005E1025003E152
:1003F000035001E1002A26BE018E26AE019E04D0E4
:10040000006A016A026A036A000C8E0E006E1BC04D
:1004100001F01AC002F0036A015209E102C001F0C2
:10042000026A080E005E015202E1006A08D0D8900C
:1004300001BE04D0023601360006F9D7019E000C39
:10044000116A106A156A146A136A126A196A186ABC
:10045000176A166A07C01DF006C01CF005C01BF025
:1004600004C01AF092DE1D6A1C6A7A0E1B6E8A0E98
:100470001A6E03C021F002C020F001C01FF000C0BE
:100480001EF09DDE00C01AF001C01BF002C01CF07F
:1004900003C01DF003C021F002C020F001C01FF016
:1004A00000C01EF0256A246A236A820E226E34DFA1
:1004B00003C019F002C018F001C017F000C016F018
:1004C00095908C8000D000D0000095908C9083B2E5
:1004D00001D0FDD7CF6ACE6A83A201D0FDD7CE501E
:1004E000106ECFCF11F011C01BF010C01AF08DDFCD
:1004F00003C01DF002C01CF001C01BF000C01AF0C8
:10050000216A206A1F6A800E1E6E59DE00C01AF032
:1005100001C01BF002C01CF003C01DF003C021F09D
:1005200002C020F001C01FF000C01EF019C025F06D
:1005300018C024F017C023F016C022F0EDDE00C072
:100540001AF001C01BF002C01CF003C01DF003C074
:1005500021F002C020F001C01FF000C01EF0256A8B
:10056000246A080E236E840E226ED6DE03C015F0B8
:1005700002C014F001C013F000C012F012C000F06D
:1005800013C001F014C002F015C003F060EF06F0D4
:10059000116A106A156A146A136A126A196A186A6B
:1005A000176A166A07C01DF006C01CF005C01BF0D4
:1005B00004C01AF0EADD1D6A1C6A7A0E1B6E8A0EF0
:1005C0001A6E03C021F002C020F001C01FF000C06D
:1005D0001EF0F5DD00C01AF001C01BF002C01CF0D7
:1005E00003C01DF003C021F002C020F001C01FF0C5
:1005F00000C01EF0256A246A236A820E226E8CDEF9
:1006000003C019F002C018F001C017F000C016F0C6
:1006100095948C8400D000D0000095948C9483B67F
:1006200001D0FDD7B36AB26A83A601D0FDD7B2501C
:10063000106EB3CF11F011C01BF010C01AF0E5DE40
:1006400003C01DF002C01CF001C01BF000C01AF076
:10065000216A206A1F6A800E1E6EB1DD00C01AF08A
:1006600001C01BF002C01CF003C01DF003C021F04C
:1006700002C020F001C01FF000C01EF019C025F01C
:1006800018C024F017C023F016C022F045DE00C0C9
:100690001AF001C01BF002C01CF003C01DF003C023
:1006A00021F002C020F001C01FF000C01EF0256A3A
:1006B000246A080E236E840E226E2EDE03C015F00F
:1006C00002C014F001C013F000C012F012C000F01C
:1006D00013C001F014C002F015C003F069EF06F07A
:1006E00013C01AF017501A1A1AAE05D0D894D89021
:1006F00013BED8802FD013C01AF016C01BF01250B2
:100700001B5E06E01AAE26D0D850010AD86E22D061
:1007100017C01BF013501B5E06E01AAE1BD0D8505A
:10072000010AD86E17D018C01BF014501B5E06E0EB
:100730001AAE10D0D850010AD86E0CD019C01BF0D8
:1007400015501B5E06E01AAE05D0D850010AD86ECF
:1007500001D0D890000C1F2C01D003D0400E206E89
:1007600001D0206A010E1E5C202620508009216ED7
:10077000226A236EBADCDEEF03F01D500C0A05E09E
:10078000060A0BE0020A0FE013D0226A010E236E64
:10079000ACDC020E246E90DC11D0010E1E6E020E37
:1007A0001F6ED9D70BD0226A100E236E9EDC06D0A6
:1007B000010E226E1DC023F098DC00D0000C090051
:1007C000F5520CE0F6CF12F0F7CF13F0F5CF1DF095
:1007D000D4DF12C0F6FF13C0F7FFF1D7000C0BC037
:1007E00015F00AC014F009C013F008C012F0196A1D
:1007F000186A700E176E830E166E72DF37E3156A75
:10080000146A700E136E830E126E0FC019F00EC0B4
:1008100018F00DC017F00CC016F062DF27E39490BB
:100820008B90949C8B8C949A8B8A226A010E236EF7
:100830005CDC180EF66E000EF76EC1DF040E126E51
:10084000FA0E246E39DC122EFBD7106A1050050800
:100850000CE3949E8B8EFA0E246E2EDC949E8B9E5F
:10086000FA0E246E29DC102AF1D789D00FC015F0BA
:100870000EC014F00DC013F00CC012F0196A186A03
:10088000700E176E830E166E2BDF28E3156A146A3E
:10089000700E136E830E126E0BC019F00AC018F0A2
:1008A00009C017F008C016F01BDF18E394908B8086
:1008B000949C8B9C949A8B8A226A010E236E15DC81
:1008C000360EF66E000EF76E7ADF040E126EFA0E1A
:1008D000246E5CEC00F0122EFAD751D00BC015F04C
:1008E0000AC014F009C013F008C012F0196A186A9F
:1008F000700E176E830E166EF3DE3BE30FC015F01D
:100900000EC014F00DC013F00CC012F0196A186A72
:10091000700E176E830E166EE3DE2BE394908B90B1
:10092000949C8B8C949A8B8A226A010E236E75ECB0
:1009300000F0520EF66E000EF76E41DF040E126EDE
:10094000FA0E246E5CEC00F0122EFAD7116A1150E8
:1009500005080EE3949E8B8EFA0E246E5CEC00F07C
:10096000949E8B9EFA0E246E5CEC00F0112AEFD759
:1009700006D094908B80949C8B9C949A8B9A72EF67
:1009800006F00900F6CF11F0F7CF12F0F5CF1DF009
:10099000F4DE11C0F6FF12C0F7FF102EF2D7000CE4
:1009A0001D50B6081D6E036A1EC021F01E8ED89021
:1009B0001E321F32203203320232013200321D2E2B
:1009C000F6D721AE0BD0001E011E021E031E002A08
:1009D000D8B4012AD8B4022AD8B4032A5EEF05F0AD
:1009E000D8B203D0EA6A250EE96E006A016A026A8B
:1009F000036A256A266A276A286A2450231022106F
:100A000021102CE0200E296ED8901D361E361F3680
:100A1000203625362636273628362450285C08E12D
:100A20002350275C05E12250265C02E12150255C21
:100A30000FE32150255E2250D8A0223C265E235091
:100A4000D8A0233C275E2450D8A0243C285ED88020
:100A50000036013602360336292ED6D725C0EFFFE1
:100A600026C0ECFF27C0ECFF28C0ECFF000CE950CB
:100A7000156E1450176E19E013C021F012C020F04B
:100A800011C01FF010C01EF0256A246A200E236ECC
:100A9000820E226E41DC03C013F002C012F001C0CE
:100AA00011F000C010F0172EE7D713C020F012C0CD
:100AB0001FF011C01EF010C01DF072D703C013F05C
:100AC00002C012F001C011F000C010F013AE0DD042
:100AD0001506158A101E111E121E131E102AD8B4D8
:100AE000112AD8B4122AD8B4132A3B0E1C6E9A0EBF
:100AF0001B6ECA0E1A6E196A0A0E176E1450D8B4FD
:100B0000152AD882EA6A100EE96E13C020F012C0CE
:100B10001FF011C01EF010C01DF01CC024F01BC03F
:100B200023F01AC022F019C021F05ADF0150005200
:100B30000FE11428175C0CE015500CE00F0B175C4C
:100B400001E037E215BE35D015BC04D0200E2DD003
:100B5000200E151615AA0CD0159A1450D8A41506F7
:100B60000050156E2D0E1D6E08DE1550006E156AB4
:100B70001450175C0AE10050156E2E0E1D6EFDDD3F
:100B80001550006E200E1516000E300E15AA0DD051
:100B9000159A1450D8A415060050156E2D0E1D6E12
:100BA000ECDD1550006E156A300E002600C01DF0F9
:100BB000E4DDD8921CC020F01BC01FF01AC01EF04C
:100BC00019C01DF0246A236A226A0A0E216E08DF0A
:100BD00003C01CF002C01BF001C01AF000C019F0E5
:100BE000172E8FD7000C226A010E236E75EC00F0D1
:100BF0006A0EF66E000EF76E170E106EC2DEC90E8C
:100C0000E96E0BC013F00AC012F009C011F008C061
:100C100010F0020E146E2BDF200E1D6EAEDD6D0E79
:100C20001D6EABDD040E106EFA0E246E5CEC00F04F
:100C3000102EFAD7226A010E236E75EC00F08A0E90
:100C4000F66E000EF76E150E106E9BDEC90EE96E85
:100C50000FC013F00EC012F00DC011F00CC010F058
:100C6000020E146E04DF200E1D6E87DD6D0E1D6EEC
:100C700084DD040E106EFA0E246E5CEC00F0102E73
:100C8000FAD773EF06F0F86AD09EEA6AE96A076A53
:100C90001E0E066E840E056E800E046E0B6A0A6AC6
:100CA000096A086A0F6A0E6A0D6A0C6AC150C00BA5
:100CB0000F09C16E070EB46EACEF00F020EF02F02A
:100CC00003C00BF002C00AF001C009F000C008F038
:100CD0005FD403C00FF002C00EF001C00DF000C0E1
:0A0CE0000CF07DD580D7EAD70300A1
:020000040030CA
:0E0000003FCC3F1C0087A1000FC00FE00F4057
:00000001FF
;PIC18F4550
;CRC=EB8D  CREATED="09-dic.-23 20:53"
